:100000000C948B010C94B3010C94B3010C94B301C8
:100010000C94B3010C94B3010C94B3010C94B30190
:100020000C94B3010C94B3010C94500D0C94030C7C
:100030000C94B3010C94B3010C94B3010C94B30170
:100040000C94B3010C94B3010C94B3010C94B30160
:100050000C94B3010C94B3010C94B3010C943F03C2
:100060000C94B3010C94B3010C94B3010C94B30140
:100070000C94B3010C94B3010C94B3010C94B30130
:100080000C94B3010C94B3010C94B3010C94B30120
:100090000C94B3010C94B3010C94B3010C94B30110
:1000A0000C94B3010C94B3010C94B301AF02B202EF
:1000B000A502A902D302D302D302B602BA02BE023B
:1000C000C402C802D302CE02820487048C049604C0
:1000D000E004E004E004A004AA04B404BE04CB04D9
:1000E000E004D304070605040100080A0B0C0D09FF
:1000F0000000000200080E0000030401000B0000D5
:1001000000000000000000000000000000000408E3
:10011000020110408040102040804080080204010D
:10012000804020100201108010204040040404048C
:10013000040304050202020204030202020206068C
:100140000606060604040202020400000000250060
:1001500028002B002E0031000000000024002700A2
:100160002A002D003000080B0002020201000904E1
:100170000000010202000005240010010524010115
:10018000010424020605240600010705810310006E
:100190004009040100020A000000070502024000B5
:1001A000000705830240000000C18081C1120100E8
:1001B00002020000404123368000010102000112CA
:1001C00001000200000040412336800001010200CE
:1001D000011803410072006400750069006E006F31
:1001E0000020004C004C00430022034100720064D8
:1001F00000750069006E006F0020004C0065006F04
:10020000006E006100720064006F000403090400C6
:10021000000000000000002A2B2800000000000061
:100220000000000000000000000000000000002CA2
:100230009EB4A0A1A2A434A6A7A5AE362D37382718
:100240001E1F20212223242526B333B62EB7B89FA4
:100250008485868788898A8B8C8D8E8F90919293E6
:100260009495969798999A9B9C9D2F3130A3AD3584
:100270000405060708090A0B0C0D0E0F10111213C6
:100280001415161718191A1B1C1DAFB1B0B50009AB
:1002900004020001030000000921010100012265A0
:1002A000000705840340000105010902A1010901BD
:1002B000A1008501050919012903150025019503F0
:1002C0007501810295017505810305010930093128
:1002D00009381581257F750895038106C0C0050181
:1002E0000906A1018502050719E029E71500250186
:1002F00075019508810295017508810395067508B9
:10030000150025650507190029658100C000FA015F
:10031000D306DB0E000211241FBECFEFDAE0DEBFF2
:10032000CDBF11E0A0E0B1E0E6EDFEE102C0059036
:100330000D92A634B107D9F721E0A6E4B1E001C0DF
:100340001D92A53DB207E1F711E0CAE8D1E004C073
:100350002197FE010E94080FC738D107C9F70E94F4
:100360004E080C945E0F0C940000CF93DF93EB01CA
:10037000BC018BE00E945B04BE01DD0F880B990B72
:100380000E94AE0382E10E942A04EC0160E070E06A
:100390008BE00E945B04CE01DF91CF910895CF9353
:1003A000DF93EB01682F70E089E00E945B04BE01DF
:1003B000DD0F880B990B0E94AE0360E070E089E0CE
:1003C000DF91CF910C945B0460E082E10E94D40243
:1003D00061E08BE00E94D40261E089E00E94D402D7
:1003E00060E089E00E94100360E875E289E691E030
:1003F0000C94D20667E171E087E491E00C94570514
:1004000087E491E00C94E9040F931F93CF93DF935B
:10041000CDB7DEB727970FB6F894DEBF0FBECDBFBE
:1004200089E691E00E94D905892B09F479C089E613
:1004300091E00E94FD0520914E0130914F012F5F08
:100440003F4F203131052CF430934F0120934E0162
:1004500004C010924F0110924E01E0914E01F091B4
:100460004F01E05BFE4F80838A3009F059C08091D4
:1004700050018835F1F468EC70E08FEF90E00E9455
:10048000B5014AE0BC01CE0101960E949B05BE0168
:100490006F5F7F4F87E491E00E946D05CE0101966A
:1004A0000E94E90467E471E089E691E00E94730725
:1004B00031C0833521F5809151018093460100912F
:1004C0005301002E000C110B102F002780915201B8
:1004D000080F111D87FD1A9561E171E089E691E031
:1004E0000E9456074AE050E0B80189E691E00E9478
:1004F0003C08B801809146010E94CF010BC08134B5
:1005000019F468E171E002C06EE171E089E691E002
:100510000E94850780E190E090934F0180934E0107
:1005200027960FB6F894DEBF0FBECDBFDF91CF91F7
:100530001F910F91089590E0FC013197EE30F10585
:1005400090F5EA5AFF4F0C94080F809180008F7746
:1005500003C0809180008F7D80938000089584B5D2
:100560008F7702C084B58F7D84BD089580919000FF
:100570008F7707C0809190008F7D03C0809190009D
:10058000877F8093900008958091C0008F7703C08B
:100590008091C0008F7D8093C00008958091C2003B
:1005A000877F8093C2000895CF93DF9390E0FC0192
:1005B000E25FFE4F2491FC01E45DFE4F84918823AD
:1005C00061F190E0880F991FFC01E85AFE4FC59138
:1005D000D491FC01E65BFE4FA591B491611109C075
:1005E0009FB7F8948881209582238883EC912E23ED
:1005F0000BC0623061F49FB7F8948881322F309538
:1006000083238883EC912E2B2C939FBF06C08FB73A
:10061000F894E8812E2B28838FBFDF91CF91089526
:100620001F93CF93DF93282F30E0F901E051FF4F64
:100630008491F901E25FFE4FD491F901E45DFE4F30
:10064000C491CC23C1F0162F81110E949B02EC2F84
:10065000F0E0EE0FFF1FE65BFE4FA591B4919FB750
:10066000F894111104C08C91D095D82302C0EC915C
:10067000DE2BDC939FBFDF91CF911F9108951F92D6
:100680000F920FB60F9211242F933F938F939F9346
:10069000AF93BF938091610190916201A09163013A
:1006A000B09164013091600123E0230F2D3720F4D5
:1006B0000196A11DB11D05C026E8230F0296A11DBC
:1006C000B11D209360018093610190936201A0931A
:1006D0006301B09364018091650190916601A091DE
:1006E0006701B09168010196A11DB11D809365015C
:1006F00090936601A0936701B0936801BF91AF9199
:100700009F918F913F912F910F900FBE0F901F904F
:1007100018953FB7F8948091650190916601A0917A
:100720006701B091680126B5A89B05C02F3F19F05D
:100730000196A11DB11D3FBFBA2FA92F982F882761
:10074000820F911DA11DB11DBC01CD0142E0660FBC
:10075000771F881F991F4A95D1F70895CF92DF928E
:10076000EF92FF92CF93DF936B017C010E9489038C
:10077000EB01C114D104E104F10479F00E94890372
:100780006C1B7D0B683E7340A0F381E0C81AD10852
:10079000E108F108C851DC4FECCFDF91CF91FF9019
:1007A000EF90DF90CF900895789484B5826084BDF7
:1007B00084B5816084BD85B5826085BD85B5816065
:1007C00085BDEEE6F0E0808181608083E1E8F0E0C5
:1007D0001082808182608083808181608083E0E8F4
:1007E000F0E0808181608083E1E9F0E080818260D7
:1007F0008083808181608083E0E9F0E08081816096
:100800008083E1ECF0E0808184608083808182607D
:100810008083808181608083E3ECF0E0808181606F
:100820008083E0ECF0E0808182608083E2ECF0E0A5
:10083000808181608083EAE7F0E08081846080834A
:1008400080818260808380818160808380818068F4
:1008500080830895823108F08251E82FF0E0EC5156
:10086000FF4FE49180917B00E3FB222720F930E0E9
:1008700095E0220F331F9A95E1F78F7D282B209367
:100880007B008091000120E4829FC0011124E77069
:10089000E82BE0937C0080917A00806480937A005A
:1008A00080917A0086FDFCCF8091780020917900BC
:1008B00090E0922B08951F93CF93DF93182FEB01B5
:1008C00061E00E94D402209711F460E004C0CF3FA1
:1008D000D10539F461E0812FDF91CF911F910C9404
:1008E0001003E12FF0E0E051FF4FE4918E2F90E0F4
:1008F000FC013197EE30F10508F062C0EC59FF4F72
:100900000C94080F84B5806884BDC7BD5EC084B5F3
:10091000806284BDC8BD59C080918000806880938A
:100920008000D0938900C09388004FC080918000E0
:10093000806280938000D0938B00C0938A0045C072
:1009400080919000806880939000D0939900C0932C
:1009500098003BC080919000806280939000D0937B
:100960009B00C0939A0031C0809190008860809372
:100970009000D0939D00C0939C0027C08091C00040
:1009800080688093C0008091C0008F7B8093C000FE
:10099000C093CF001AC08091C00080628093C000D5
:1009A000C093D00012C08091C20088608093C200C2
:1009B0008091C2008B7F8093C200C093D20005C09B
:1009C000C038D1050CF086CF80CFDF91CF911F9139
:1009D0000895FC01808191810C94F708CF93DF93F7
:1009E000EC0188819981009711F00E94F708198223
:1009F00018821D821C821B821A82DF91CF9108957A
:100A00000F931F93CF93DF93EC018B016F5F7F4FA9
:100A1000888199810E948009009731F099838883A9
:100A20001B830A8381E001C080E0DF91CF911F9199
:100A30000F910895CF93DF93EC0188819981892BE1
:100A400029F08A819B818617970760F4CE010E9466
:100A50000005882341F08C819D81892B19F4E88160
:100A6000F981108281E0DF91CF910895EF92FF929A
:100A70000F931F93CF93DF93EC017B018A01BA019F
:100A80000E941A05811104C0CE010E94EE0407C025
:100A90001D830C83B701888199810E94170FCE01B5
:100AA000DF91CF911F910F91FF90EF900895FC017E
:100AB00011821082138212821582148216826115AD
:100AC000710551F0FB0101900020E9F73197AF016A
:100AD000461B570B0C9436050895CF93DF93EC011A
:100AE000FB018617970761F06081718161157105BF
:100AF00029F0448155810E94360502C00E94EE040F
:100B0000CE01DF91CF910895CF93DF93EC01611572
:100B1000710559F0FB0101900020E9F73197AF0111
:100B2000461B570B0E94360502C00E94EE04CE0100
:100B3000DF91CF9108950F931F93CF93DF93CDB79C
:100B4000DEB762970FB6F894DEBF0FBECDBF8C0143
:100B5000CB01F80111821082138212821582148255
:100B6000168250E0BE016F5F7F4F0E941E0FBE01D4
:100B70006F5F7F4FC8010E94840562960FB6F8949C
:100B8000DEBF0FBECDBFDF91CF911F910F910895B2
:100B9000FC01248135816217730748F480819181BB
:100BA000009729F0FC01E60FF71F8081089580E08F
:100BB00008958091B7019091B8012091B9013091C9
:100BC000BA01821B930B8F73992708952091B70167
:100BD0003091B8018091B9019091BA012817390775
:100BE00049F0E091B901F091BA01E958FE4F8081D6
:100BF00090E008958FEF9FEF08952091B701309115
:100C0000B8018091B9019091BA0128173907A9F06C
:100C1000E091B901F091BA01E958FE4F808120912D
:100C2000B9013091BA012F5F3F4F2F7333273093B3
:100C3000BA012093B90190E008958FEF9FEF0895D6
:100C4000CF93DF93C091B701D091B8012196CF73B4
:100C5000DD278091B9019091BA01C817D90799F0A1
:100C600082E00E94CF0A8F3F2FEF920761F0E09160
:100C7000B701F091B801E958FE4F8083D093B801D5
:100C8000C093B701DFCFDF91CF91089583E00C943B
:100C9000280D0F931F93CF93DF931F92CDB7DEB72D
:100CA0008C01698380910801882359F041E050E06C
:100CB000BE016F5F7F4F83E00E94000B181619067C
:100CC0003CF081E090E0F8019383828380E090E043
:100CD0000F90DF91CF911F910F910895FC019081AA
:100CE0009E5F908342E450E066E671E080E80C94F9
:100CF000970BFC0181819081913A59F4813209F07E
:100D00004DC047E050E061E071E080E00E94970B49
:100D100047C0913209F042C0803239F467E070E098
:100D200081E091E00E94DE0B3BC0823209F036C0C8
:100D30008281809308018091010190910201A0912C
:100D40000301B0910401803B9440A105B10541F538
:100D50008091080180FD11C087E797E79093010813
:100D6000809300089BE088E10FB6F894A8958093E3
:100D700060000FBE9093600013C00FB6F894A89562
:100D800080916000886180936000109260000FBEC7
:100D9000A895109201081092000802C080E0089502
:100DA00081E008950895E9E6F1E01382128288EE69
:100DB00093E0A0E0B0E084839583A683B78389E2C3
:100DC00091E0918380830895CF92DF92EF92FF921A
:100DD0000F931F93CF93DF936C01EB017B01E40E24
:100DE000F51E00E010E0CE15DF0561F06991D60137
:100DF000ED91FC910190F081E02DC6010995080F5D
:100E0000191FF1CFC801DF91CF911F910F91FF9072
:100E1000EF90DF90CF9008956115710579F0FB0197
:100E200001900020E9F73197AF01461B570BDC0119
:100E3000ED91FC910280F381E02D099480E090E037
:100E40000895AF92BF92CF92DF92EF92FF920F93ED
:100E50001F93CF93DF937C016B01C0E0D0E000E0F3
:100E600010E0D60114968D919C911597C817D9075B
:100E700088F4D701ED91FC91A080B180BE01C6013C
:100E80000E94C805682FC701F5010995080F191FB1
:100E90002196E7CFC801DF91CF911F910F91FF906D
:100EA000EF90DF90CF90BF90AF9008950C940C0717
:100EB000DC01ED91FC910190F081E02D09940F93FC
:100EC0001F93CF93DF93EC016DE00E9458078C01D4
:100ED0006AE0CE010E945807800F911FDF91CF91E9
:100EE0001F910F9108950F931F93CF93DF93EC0100
:100EF0000E9421078C01CE010E945F07800F911F85
:100F0000DF91CF911F910F9108950F931F93CF936E
:100F1000DF93EC010E940C078C01CE010E945F0759
:100F2000800F911FDF91CF911F910F9108958F92A4
:100F30009F92AF92BF92CF92DF92EF92FF920F9368
:100F40001F93CF93DF93CDB7DEB7A1970FB6F89479
:100F5000DEBF0FBECDBF6C01142FE52FCB01022FDA
:100F600019A2223008F40AE07E0121E2E20EF11C0F
:100F7000802E912CA12CB12C612F7E2FA5019401E4
:100F80000E94E60E029F1019112481E0E81AF10870
:100F90001A3014F4105D01C0195CF7011083122F90
:100FA000E32FCA01232B242B252B31F7B701C601D0
:100FB0000E940C07A1960FB6F894DEBF0FBECDBFFE
:100FC000DF91CF911F910F91FF90EF90DF90CF9025
:100FD000BF90AF909F908F900895CF92DF92EF9245
:100FE000FF920F931F93CF93DF932115310581F467
:100FF000DC01ED91FC910190F081E02D642FDF91F7
:10100000CF911F910F91FF90EF90DF90CF900994B7
:101010002A30310501F577FF1DC06A017B01EC0123
:101020006DE20E9458078C0144275527BA014C19DC
:101030005D096E097F092AE0CE010E949707800FA3
:10104000911FDF91CF911F910F91FF90EF90DF9053
:10105000CF9008952AE0DF91CF911F910F91FF90DB
:10106000EF90DF90CF900C9497079A01AB01770F28
:10107000660B770B0C94ED070F931F93CF93DF93C1
:10108000EC010E9435088C01CE010E945F07800FA1
:10109000911FDF91CF911F910F9108950E94D4036A
:1010A0008BEB91E00E94320D0E94E401C0E0D0E0A1
:1010B0000E9404022097E1F30E940000F9CF0F93F1
:1010C0001F93CF93DF938230910510F482E090E07C
:1010D000E091D301F091D40120E030E0A0E0B0E055
:1010E000309719F1408151810281138148175907C6
:1010F000C8F08417950769F4109731F012960C9395
:10110000129713961C9327C00093D3011093D40118
:1011100022C02115310519F04217530718F49A011E
:10112000BD01EF01DF01F801DBCF21153105F9F039
:10113000281B390B2430310580F48A819B8161158D
:10114000710521F0FB019383828304C09093D40145
:101150008093D301FE01329644C0FE01E20FF31FDB
:101160008193919322503109398328833AC0209189
:10117000D1013091D201232B41F420910B01309108
:101180000C013093D2012093D101209109013091BB
:101190000A012115310541F42DB73EB740910D01EB
:1011A00050910E01241B350BE091D101F091D20139
:1011B000E217F307A0F42E1B3F0B2817390778F02E
:1011C000AC014E5F5F4F2417350748F04E0F5F1F8D
:1011D0005093D2014093D1018193919302C0E0E0FA
:1011E000F0E0CF01DF91CF911F910F910895CF9340
:1011F000DF93009709F481C0FC01329713821282B9
:10120000A091D301B091D401109781F42081318154
:10121000820F931F2091D1013091D20128173907F5
:1012200051F5F093D201E093D10167C0ED0120E0C8
:1012300030E0CE17DF0740F44A815B819E01411503
:101240005105F1F0EA01F5CFD383C283408151818A
:10125000840F951FC817D90759F488819981840F85
:10126000951F0296918380838A819B8193838283D9
:101270002115310529F4F093D401E093D3013DC049
:10128000E901FB83EA8349915991C40FD51FEC17FB
:10129000FD0761F480819181840F951F0296E90119
:1012A00099838883828193819B838A83E0E0F0E045
:1012B00012968D919C911397009719F0FD01DC0116
:1012C000F7CF8D919C9111979D012E5F3F4F820F1B
:1012D000931F2091D1013091D2012817390769F469
:1012E000309729F41092D4011092D30102C01382D6
:1012F0001282B093D201A093D101DF91CF910895D2
:101300006F927F928F929F92AF92BF92CF92DF9215
:10131000EF92FF920F931F93CF93DF93009789F47F
:10132000CB01DF91CF911F910F91FF90EF90DF9054
:10133000CF90BF90AF909F908F907F906F900C94C4
:101340005F08FC01E60FF71F9C0122503109E217EC
:10135000F30708F4A9C0EC01D9010D911C91119774
:1013600006171707B0F00530110508F49BC0C80137
:1013700004978617970708F495C002501109061BB9
:10138000170B019311936D937C93CF010E94F70883
:1013900089C05B01A01AB10A4C01800E911EA09178
:1013A000D301B091D401612C712CE12CF12C109758
:1013B00009F446C08D919C911197A815B905B1F516
:1013C0006C0142E0C40ED11CCA14DB0478F14C015C
:1013D0008A189B08640142E0C40ED11C1296BC908E
:1013E00012971396AC91B5E0CB16D10440F0B282BF
:1013F000A38391828082D9016D937C9309C00E5F93
:101400001F4F800F911FF90191838083EB2DFA2FDD
:10141000E114F10431F0D7011396FC93EE93129787
:1014200041C0F093D401E093D3013CC06816790623
:1014300008F43C017D0112960D90BC91A02DB7CF10
:101440008091D1019091D20188169906E1F4661637
:101450007706C8F48091090190910A01009741F440
:101460008DB79EB740910D0150910E01841B950BD5
:10147000E817F907C8F4F093D201E093D101F9011C
:10148000718360830FC0CB010E945F087C010097CD
:1014900059F0A801BE010E940E0FCE010E94F7086C
:1014A000C70104C0CE0102C080E090E0DF91CF917F
:1014B0001F910F91FF90EF90DF90CF90BF90AF9072
:1014C0009F908F907F906F900895615030F02091A1
:1014D000F100FC0120830196F8CF289884E68093E0
:1014E000C20108952FB7FC012083F89467706093C0
:1014F000E9000895CF93DF931F92CDB7DEB7682F31
:10150000CE0101960E94720A8091F20099819FBFDC
:101510000F90DF91CF910895EF92FF920F931F9359
:10152000CF93DF931F92CDB7DEB79091C10199237E
:1015300011F057FF03C08FEF9FEF29C08A017B0195
:10154000682FCE0101960E94720A2091F20030E0CD
:10155000021713070CF49801822FF70194E68150CB
:1015600038F028989093C2014091F1004193F7CF51
:101570002115310521F08091F200882321F0898125
:101580008FBFC90104C08BE68093E800F8CF0F90AD
:10159000DF91CF911F910F91FF90EF900895CF931E
:1015A000DF931F92CDB7DEB741E050E0BE016F5F21
:1015B0007F4F0E948C0A019719F4898190E002C044
:1015C0008FEF9FEF0F90DF91CF910895CF93DF932F
:1015D0001F92CDB7DEB7682FCE0101960E94720A26
:1015E0009091E800892F807295FF04C09091F200DD
:1015F00080E4891B99819FBF0F90DF91CF9108955F
:101600004F925F926F927F928F929F92AF92BF9212
:10161000CF92DF92EF92FF920F931F93CF93DF93BE
:101620001F92CDB7DEB7A82E6B01B42E052F809187
:10163000C101882369F0E42EF52E8AEF782E8A2DD9
:101640008072582E9AE3692E8A2D8074482E12C01B
:101650008FEF9FEF4FC08A2D0E94E60A182F81114D
:101660000DC07A947720A1F361E070E080E090E013
:101670000E94AE03E114F10471F732C090E0E81665
:10168000F9060CF41E2D812E912CE818F9086A2D0C
:10169000CE0101960E94720A552029F01150A0F047
:1016A0001092F100FBCFF601A7FE0AC0115050F0D6
:1016B00084918093F1003196F9CF81918093F1006C
:1016C0001150D8F7C80CD91C8091E80085FF0FC0D5
:1016D000E114F10411F441100AC089818FBFCACF0F
:1016E0005D9884E68093C3018B2D902F03C0609298
:1016F000E800F3CF0F90DF91CF911F910F91FF90F2
:10170000EF90DF90CF90BF90AF909F908F907F90A1
:101710006F905F904F9008951092E9001092C00171
:101720001092BF019093BE018093BD0108950F9365
:101730001F93CF93DF93DB01A40FB51FFB016EEF67
:10174000EA17FB0791F187FF02C0249101C02081B5
:101750000091BF011091C001C091BD01D091BE01A7
:101760000C171D07B4F49091E8009570E1F3909187
:10177000E80092FD1CC02093F1002091BF01309140
:10178000C0012F5F3F4F2F733327232B11F460933A
:10179000E8002091BF013091C0012F5F3F4F30938F
:1017A000C0012093BF013196CBCFCA0102C08FEF99
:1017B0009FEFDF91CF911F910F910895CF93DF930A
:1017C000EB012091E80022FFFCCF6C2F0E94650AFC
:1017D0008BEF8093E800CE01DF91CF910895CF93F6
:1017E000DF931F92CDB7DEB71982CE0101960E941A
:1017F0006E06CE0101960E94CD0D898190E00F907A
:10180000DF91CF9108951F920F920FB60F9211247E
:10181000CF92DF92EF92FF921F932F933F934F93BC
:101820005F936F937F938F939F93AF93BF93EF9348
:10183000FF93CF93DF93CDB7DEB76197DEBFCDBF08
:101840001092E9008091E80083FFE4C068E0CE01D7
:101850000A960E94650A82EF8093E8009A8597FFB6
:1018600005C08091E80080FFFCCF03C08EEF80931D
:10187000E800892F807609F0A3C08B85811105C00F
:101880001092F1001092F100BEC0282F2D7F213060
:1018900009F4B9C0853049F48091E80080FFFCCF9D
:1018A0008C8580688093E300AEC0863009F05EC00E
:1018B0001D85E888F988123069F580E090E00E9483
:1018C0008C0B0E94EF0B99E09E012F5F3F4F690147
:1018D000F901292F11922A95E9F799831A8391E04A
:1018E0009E8390E898879AEF99872091BF01309165
:1018F000C001275F3F4F3C832B838D83C7010E942C
:101900008C0B49E050E0B60180E00E94970B0E94EA
:10191000EF0B79C0C7010E948C0B123241F482E2B6
:1019200090E00E94D80D892B09F06DC070C0113075
:1019300069F488899989089711F41093BC01809102
:10194000BC01811152C06FEB71E057C0133009F038
:101950005EC08C85882309F44BC0823009F44BC0EB
:10196000813009F054C061ED71E047C0873009F45F
:101970004EC0883021F481E08093F10044C089306A
:1019800009F041C0937009F042C0E9EAF1E081E05A
:1019900031E096E38093E9003093EB0024912093AB
:1019A000EC009093ED008F5F3196853099F78EE7CC
:1019B0008093EA001092EA008C858093C10123C0D5
:1019C000888999890E948C0B8E85811105C0CE0172
:1019D0000A960E94790606C08230C9F4CE010A96A2
:1019E0000E94000E882399F00EC06DEA71E005C0D8
:1019F0006BE072E002C069EE71E0FB01449150E0DF
:101A000080E80E94970B8EEF8093E80003C081E28C
:101A10008093EB0061960FB6F894DEBF0FBECDBF8A
:101A2000DF91CF91FF91EF91BF91AF919F918F91F6
:101A30007F916F915F914F913F912F911F91FF90F7
:101A4000EF90DF90CF900F900FBE0F901F901895E2
:101A50008093E9008091F200882319F08AE3809353
:101A6000E80008951092C10181E08093D70080EAD8
:101A70008093D80082E189BD09B400FEFDCF61E00A
:101A800070E080E090E00E94AE0380E98093D8008F
:101A90008CE08093E2001092E000559A209A08951D
:101AA0001F920F920FB60F9211242F933F934F93D3
:101AB0005F936F937F938F939F93AF93BF93EF93B6
:101AC000FF938091E1001092E10083FF0FC010921C
:101AD000E90091E09093EB001092EC0092E3909378
:101AE000ED001092C10198E09093F00082FF26C0B3
:101AF00083E00E94280D82E00E947A0A882321F068
:101B000089E691E00E9420068091C301882339F084
:101B10008091C30181508093C301882369F0809133
:101B2000C201882359F08091C20181508093C20183
:101B3000811104C0289A02C05D9AF1CFFF91EF9104
:101B4000BF91AF919F918F917F916F915F914F91D5
:101B50003F912F910F900FBE0F901F901895EF920D
:101B6000FF921F93CF93DF93EC01162FE881F98149
:101B70000480F581E02D09957C01E881F9810680DA
:101B8000F781E02D612FCE010995C7019927DF91DB
:101B9000CF911F91FF90EF900895FC0190819F5F7E
:101BA000908349E150E06FE872E080E80C94970B75
:101BB00045E650E068EA72E080E80C94970BEF92FB
:101BC000FF920F931F93CF93DF931F92CDB7DEB792
:101BD00089838B017A0141E050E0BE016F5F7F4F46
:101BE00084E00E94000BA701B80184E40E94000B6E
:101BF0000F90DF91CF911F910F91FF90EF9008957B
:101C0000FC0191818081813A31F481E0913091F041
:101C1000933089F411C0813271F49B3021F48281B8
:101C20008093100105C09A3031F4828180930F01B6
:101C300081E00895089580E0089548E050E082E052
:101C40000C94DF0DDC01683810F068582DC0E62FC9
:101C5000F0E067FF11C0E058F10981E090E001C0B9
:101C6000880FEA95EAF714969C911497892B14969D
:101C70008C93149760E018C0E15FFD4F649161118F
:101C800009C081E090E013969C938E93129780E0B8
:101C900090E0089567FF08C014968C9114978260B5
:101CA00014968C9314976F7716968C9116976817E5
:101CB00051F117968C911797681729F118968C9106
:101CC0001897681701F119968C9119976817D9F030
:101CD0001A968C911A976817B1F01B968C911B97E6
:101CE000681789F0FD01369680E090E0219121117E
:101CF00005C0FD01E80FF91F668305C00196863017
:101D00009105A1F7BECFCD01BD016C5F7F4F0E9451
:101D10001D0E81E090E00895DC01683810F06858ED
:101D200025C0E62FF0E067FF12C0E058F10981E01E
:101D300090E001C0880FEA95EAF7809514969C918F
:101D40001497892314968C93149760E00FC0E15F79
:101D5000FD4F64916623F9F067FF08C014968C91DB
:101D600014978D7F14968C9314976F77FD0186E0FE
:101D7000662321F09681691301C016828150319645
:101D80008111F6CFCD01BD016C5F7F4F0E941D0E0A
:101D900081E090E0089580E090E00895FC011682D3
:101DA000178210861186128613861482BC016C5F1E
:101DB0007F4F0C941D0E1092D001E4ECF1E01382E1
:101DC00012828BE391E0918380830895A1E21A2E21
:101DD000AA1BBB1BFD010DC0AA1FBB1FEE1FFF1FCF
:101DE000A217B307E407F50720F0A21BB30BE40B1F
:101DF000F50B661F771F881F991F1A9469F7609566
:101E00007095809590959B01AC01BD01CF0108951F
:101E1000EE0FFF1F0590F491E02D0994FB01DC010A
:101E200002C001900D9241505040D8F70895FB0137
:101E3000DC0101900D920020E1F708954532510533
:101E400020F4423010F00C94290FFB011082CB01DA
:101E50000895BB274A3031F4992322F4BDE29095CE
:101E600081959F4F0C94350FBB27FB015527AA275F
:101E7000880F991FAA1FA41710F0A41B8395505117
:101E8000B9F7A05DAA3308F0A95DA193009779F78F
:101E9000B111B1931192CB010C944E0FDC01FC01F6
:101EA000672F71917723E1F7329704C07C916D938E
:101EB00070836291AE17BF07C8F3089511E0CAE8B6
:101EC000D1E004C0FE010E94080F2196CB38D10753
:061ED000C9F7F894FFCFF2
:101ED6000100E10000000000000000D501800001C3
:101EE6000154696D653A200048656C6C6F00464187
:101EF600494C454400000000004906E406D905FDAA
:101F060005E6054606200600000000AF0DE40622A1
:061F16000E8C0ECE0E0041
:00000001FF
