:100000000C945D000C9485000C9485000C94850084
:100010000C9485000C9485000C9485000C9485004C
:100020000C9485000C9485000C9485000C9485003C
:100030000C9485000C9485000C9485000C9485002C
:100040000C94E9010C9485000C9470030C94B30398
:100050000C9485000C9485000C9485000C9485000C
:100060000C9485000C94850000000007000201003C
:100070000003040600000000000000000102040864
:100080001020408001020408102001020408102002
:10009000040404040404040402020202020203032E
:1000A0000303030300000000250028002B000000CC
:1000B0000000240027002A00740411241FBECFEF83
:1000C000D8E0DEBFCDBF11E0A0E0B1E0ECE6FAE0A1
:1000D00002C005900D92A631B107D9F721E0A6E143
:1000E000B1E001C01D92A93CB207E1F710E0CDE5F7
:1000F000D0E004C02197FE010E942E05CC35D10727
:10010000C9F70E94D7040C9434050C940000DC015C
:10011000ED91FC910190F081E02D099460E08FE079
:100120000E947E0160E080E10E947E0160E08EE03E
:100130000E947E0161E085E00E947E0140E855E278
:1001400060E070E08FE191E00E94EE038FE191E0CA
:100150000E9472048823D1F360E085E00C94BA0118
:100160004F925F926F927F928F929F92AF92BF92C7
:10017000CF92DF92EF92FF92CF93DF938FE191E0E6
:100180000E94D602892B09F481C08FE191E00E9480
:100190000203823509F07AC061E085E00E94BA016D
:1001A0006CE271E080E090E00E945802C0E0D0E094
:1001B000C12CD12C7601812C912C5401412C512C35
:1001C00032016091020170910301C617D7076CF5E7
:1001D0008EE00E94B902092E000CAA0BBB0B480E40
:1001E000591E6A1E7B1E8FE00E94B902092E000C68
:1001F000AA0BBB0B880E991EAA1EBB1E80E10E9493
:10020000B902092E000CAA0BBB0BC80ED91EEA1EA0
:10021000FB1E6091000170910101072E000C880BFC
:10022000990B0E9458022196CCCFC2010E94E4048F
:100230008FE191E00E9487006091020170910301BB
:10024000C4010E94E4048FE191E00E948700609164
:10025000020170910301C6010E94E4048FE191E064
:100260000E9487006AE070E08FE191E0DF91CF911A
:10027000FF90EF90DF90CF90BF90AF909F908F90C6
:100280007F906F905F904F900C948700DF91CF919B
:10029000FF90EF90DF90CF90BF90AF909F908F90A6
:1002A0007F906F905F904F900895833081F028F495
:1002B000813099F08230A1F008958630A9F087301E
:1002C000B9F08430D1F4809180008F7D03C080919B
:1002D00080008F7780938000089584B58F7702C067
:1002E00084B58F7D84BD08958091B0008F7703C061
:1002F0008091B0008F7D8093B0000895CF93DF93FD
:1003000090E0FC01E458FF4F2491FC01E057FF4FBF
:100310008491882361F190E0880F991FFC01E255D8
:10032000FF4FC591D491FC01EC55FF4FA591B491BD
:10033000611109C09FB7F894888120958223888332
:10034000EC912E230BC0623061F49FB7F894888142
:10035000322F309583238883EC912E2B2C939FBFD3
:1003600006C08FB7F894E8812E2B28838FBFDF91CA
:10037000CF9108951F93CF93DF93282F30E0F90199
:10038000E859FF4F8491F901E458FF4FD491F901E6
:10039000E057FF4FC491CC23C1F0162F81110E946A
:1003A0005501EC2FF0E0EE0FFF1FEC55FF4FA5912C
:1003B000B4919FB7F894111104C08C91D095D823B3
:1003C00002C0EC91DE2BDC939FBFDF91CF911F9198
:1003D00008951F920F920FB60F9211242F933F93FF
:1003E0008F939F93AF93BF938091170190911801C2
:1003F000A0911901B0911A013091160123E0230F49
:100400002D3720F40196A11DB11D05C026E8230F4C
:100410000296A11DB11D20931601809317019093A0
:100420001801A0931901B0931A0180911B019091BA
:100430001C01A0911D01B0911E010196A11DB11DCD
:1004400080931B0190931C01A0931D01B0931E018A
:10045000BF91AF919F918F913F912F910F900FBEC0
:100460000F901F9018953FB7F89480911B019091C1
:100470001C01A0911D01B0911E0126B5A89B05C0CD
:100480002F3F19F00196A11DB11D3FBFBA2FA92F13
:10049000982F8827820F911DA11DB11DBC01CD0190
:1004A00042E0660F771F881F991F4A95D1F708957C
:1004B000CF92DF92EF92FF92CF93DF936B017C019B
:1004C0000E943302EB01C114D104E104F10479F07C
:1004D0000E9433026C1B7D0B683E7340A0F381E0E9
:1004E000C81AD108E108F108C851DC4FECCFDF9100
:1004F000CF91FF90EF90DF90CF900895789484B5DE
:10050000826084BD84B5816084BD85B5826085BD0F
:1005100085B5816085BDEEE6F0E0808181608083F5
:10052000E1E8F0E0108280818260808380818160D8
:100530008083E0E8F0E0808181608083E1EBF0E09F
:10054000808184608083E0EBF0E080818160808343
:10055000EAE7F0E08081846080838081826080832C
:100560008081816080838081806880831092C10057
:1005700008958E3008F08E502091040190E4299F58
:10058000900111248770822B80937C0080917A00E7
:10059000806480937A0080917A0086FDFCCF809100
:1005A00078002091790090E0922B0895FC01248539
:1005B0003585F901E05CFF4F808191813296208181
:1005C0003181821B930B8F7399270895DC011C9650
:1005D000ED91FC911D97DF01A05CBF4F2D913C91E7
:1005E000119712968D919C9111972817390739F020
:1005F0008D919C91E80FF91F808190E008958FEF15
:100600009FEF0895FC01A485B585FD01E05CFF4FD7
:10061000208131813296808191812817390779F0C4
:1006200080819181A80FB91F8C91208131812F5F2A
:100630003F4F2F7333273183208390E008958FEF4E
:100640009FEF0895FC0181A1882329F0A489B58931
:100650008C9186FFFBCF11A208950F931F93CF9328
:10066000DF93FC01A685B7858D01005C1F4FE80173
:100670008881998101968F739927AD014E5B5F4FF9
:10068000EA012881398128173907D1F3E801288147
:100690003981A20FB31F6C93A685B785A05CBF4FAD
:1006A00011969C938E93A689B7892C9181E090E056
:1006B000078C02C0880F991F0A94E2F7822B8C9353
:1006C00081E081A30488F589E02D808180648083A6
:1006D00081E090E0DF91CF911F910F9108950895EF
:1006E0001F920F920FB60F9211242F934F935F9387
:1006F0008F939F93EF93FF938091C00082FD1CC066
:100700002091C6008091C5019091C6014091C7011A
:100710005091C80101968F7399274817590771F0B6
:10072000E091C501F091C601EB57FE4F20839093F5
:10073000C6018093C50102C08091C600FF91EF9170
:100740009F918F915F914F912F910F900FBE0F90BE
:100750001F9018958FE191E00E94D602892B11F02D
:100760000C946F0308951F920F920FB60F921124ED
:100770002F933F938F939F93EF93FF93209181014A
:10078000309182018091830190918401281739076B
:1007900031F48091C1008F7D8093C10014C0E0913D
:1007A0008301F0918401EF5BFE4F208180918301F2
:1007B0009091840101968F7399279093840180937F
:1007C00083012093C600FF91EF919F918F913F91FC
:1007D0002F910F900FBE0F901F901895CF92DF9220
:1007E000EF92FF92CF93DF93EC016A017B014115F9
:1007F000514E6105710509F1EC89FD8981E090E0B8
:1008000008A002C0880F991F0A94E2F7808360E075
:1008100079E08DE390E0A70196010E94F804DA01E7
:10082000C9010197A109B109B695A7959795879533
:100830009C01211580E13807A8F0EC89FD89108220
:1008400060E874E88EE190E0A70196010E94F80448
:10085000DA01C9010197A109B109B695A795979544
:1008600087959C01E889F9893083EA89FB8920838F
:1008700019A2EE89FF89408181E090E09C010C8CF7
:1008800002C0220F331F0A94E2F7242B2083EE8943
:10089000FF8940819C010D8C02C0220F331F0A94F6
:1008A000E2F7242B2083EE89FF8940819C010E8C86
:1008B00002C0220F331F0A94E2F7242B2083EE8913
:1008C000FF8920810F8C02C0880F991F0A94E2F7DC
:1008D000809582238083DF91CF91FF90EF90DF900E
:1008E000CF90089581E00895EFE1F1E01382128244
:1008F00088EE93E0A0E0B0E084839583A683B7837D
:1009000089E091E09183808385E891E095878487F1
:1009100081E491E09787868785EC90E0918B808BCE
:1009200084EC90E0938B828B80EC90E0958B848BB1
:1009300081EC90E0978B868B82EC90E0918F808F9A
:1009400086EC90E0938F828F84E0848F83E0858FA4
:1009500087E0868F85E0878F81E080A30895CF921E
:10096000DF92EF92FF920F931F93CF93DF936C016F
:10097000EB017B01E40EF51E00E010E0CE15DF0573
:1009800061F06991D601ED91FC910190F081E02D2B
:10099000C6010995080F191FF1CFC801DF91CF914A
:1009A0001F910F91FF90EF90DF90CF9008950E94DC
:1009B0007E020E948E00CAEAD3E00E94B000209717
:1009C000E1F30E94AA03F9CF97FB072E16F40094D7
:1009D00007D077FD09D00E941A0507FC05D03EF428
:1009E000909581959F4F0895709561957F4F0895DB
:1009F000A1E21A2EAA1BBB1BFD010DC0AA1FBB1F23
:100A0000EE1FFF1FA217B307E407F50720F0A21B94
:100A1000B30BE40BF50B661F771F881F991F1A9401
:100A200069F760957095809590959B01AC01BD012B
:100A3000CF010895AA1BBB1B51E107C0AA1FBB1F12
:100A4000A617B70710F0A61BB70B881F991F5A955A
:100A5000A9F780959095BC01CD010895EE0FFF1F79
:0C0A60000590F491E02D0994F894FFCF6C
:100A6C00C800400001000000002D03AF04D60202B4
:060A7C0003E60222030064
:00000001FF
